:020000041000EA
:1000000000B5324B212058609868022188439860DF
:10001000D860186158612E4B002199600221596106
:100020000121F02299502B49196001219960352056
:1000300000F044F80222904214D00621196600F024
:1000400034F8196E01211966002018661A6600F04E
:100050002CF8196E196E196E052000F02FF8012189
:100060000842F9D1002199601B49196000215960AB
:100070001A491B48016001219960EB211966A021F2
:10008000196600F012F800219960164914480160C1
:100090000121996001BC002800D000471248134993
:1000A000086003C880F30888084703B5996A0420EC
:1000B0000142FBD001200142F8D103BD02B5186610
:1000C0001866FFF7F2FF186E186E02BD00000240BE
:1000D000000000180000070000035F00212200005C
:1000E000F4000018222000A00001001008ED00E03C
:1000F00000000000000000000000000074B24E7A12
:1001000000200420F7010010C3010010C5010010F9
:10011000C1010010C1010010C1010010C101001097
:10012000C1010010C1010010C1010010C701001081
:10013000C1010010C1010010C9010010CB01001065
:10014000CD010010CD010010CD010010CD01001037
:10015000CD010010CD010010CD010010CD01001027
:10016000CD010010CD010010CD010010CD01001017
:10017000CD010010CD010010CD010010CD01001007
:10018000CD010010CD010010CD010010CD010010F7
:10019000CD010010CD010010CD010010CD010010E7
:1001A000CD010010CD010010CD010010CD010010D7
:1001B000CD010010CD010010CD010010CD010010C7
:1001C00000BE00BE00BE00BE00BE00BE00F04BF888
:1001D000103800BEF2EB8871FC5A00101C5B001056
:1001E0003402001090A31AE700202149086006C8D5
:1001F00081F3088810471F48006800282FD10DA4FC
:100200000ECC002902D000F012F8F9E71A491B4A77
:10021000002000E001C19142FCD1194988471949E9
:1002200088471949884700BEFDE701C901C29A42C3
:10023000FBD370471C5B0010C0000020800400202E
:10024000DC5E00100000042000000420DC5E0010D2
:1002500000100420001004200000000070470B482C
:1002600002F080FB0047EFF30580C0B2704700004A
:1002700008ED00E0000000D08004002004120020FF
:10028000B923001011030010A924001057560000D4
:1002900006005250ABB36053C458001006005250D1
:1002A000861C0302D4580010060052505422A29D0E
:1002B000D858001005005250DE65F468DC5E00106E
:1002C000F8B5C04606480749091A8B10C90FC91866
:1002D00010B5491003D0044B002B00D0984710BD37
:1002E000800400208004002000000000054B10B5B1
:1002F000002B03D00449054800E000BFFFF7E2FFF0
:1003000010BDC046000000009411002018580010D5
:1003100070B5A4B002F0BAFD254801F077FC1720B3
:1003200000F078FDD02380221B0612045A625A6125
:100330000423099301330893013307930133069390
:100340000133059301330493013303930133029383
:100350000133019301330F21162200930AA80133C0
:1003600000F0D4FC6A460DAB13CB13C213CB13C2FF
:10037000FF2513CB13C236241B6817A813600B9AF2
:100380000C9B0A9900F018F8192117A800F030FB0F
:1003900017A800F09FFB074E300002F041FD7623C6
:1003A0000A220A210195009417A800F059FCF3E7EE
:1003B000102700001858001084B010B504000391F5
:1003C000049203A93422059302F0F4FB200010BC30
:1003D00008BC04B01847C046012330B51C00826831
:1003E0001D009440D022120694614469A5400B423E
:1003F00045D001235561826993408A0745D5D022B3
:10040000120653610123C26993404A0745D5D022A1
:10041000120653610123026A93400A0745D5D02290
:10042000120653610123426A9340CA0645D5D02281
:10043000120653610123826A93408A0645D5D02271
:10044000120653610123C26A93404A0645D5D02261
:10045000120653610123026B49B29340D022120667
:10046000002945DA536101231900C2689140D02266
:100470001206916101698B405361936130BD012384
:100480009561826993408A07B9D4D022120693619C
:100490000123C26993404A07B9D4D022120693615E
:1004A0000123026A93400A07B9D4D022120693614D
:1004B0000123426A9340CA06B9D4D022120693613E
:1004C0000123826A93408A06B9D4D022120693612E
:1004D0000123C26A93404A06B9D4D022120693611E
:1004E0000123026B49B29340D02212060029B9DBE6
:1004F0009361B8E7012330B51C0082681D00944069
:10050000D022120654614469A5400B4245D0012314
:100510005561826993408A0745D5D02212065361FE
:100520000123C26993404A0745D5D0221206536180
:100530000123026A93400A0745D5D022120653616F
:100540000123426A9340CA0645D5D0221206536160
:100550000123826A93408A0645D5D0221206536150
:100560000123C26A93404A0645D5D0221206536140
:100570000123026B49B29340D0221206002945DACA
:10058000536101231900C2689140D0221206916183
:1005900001698B405361936130BD0123956182698C
:1005A00093408A07B9D4D022120693610123C2690D
:1005B00093404A07B9D4D022120693610123026AFC
:1005C00093400A07B9D4D022120693610123426AEC
:1005D0009340CA06B9D4D022120693610123826ADD
:1005E00093408A06B9D4D022120693610123C26ACD
:1005F00093404A06B9D4D022120693610123026BBC
:1006000049B29340D02212060029B9DB9361B8E7C2
:10061000F8B501252A008368D0269A403606726113
:100620002A00C36804009A4072612A00036900210D
:100630009A40B261726100F0A9FB72686369A169B6
:10064000DA4073682A40CB4002322B40E169134004
:1006500072680433CA402A40216A1A40736808321B
:10066000CB402B40616A134072681033CA402A4065
:10067000A16A1A4073682032CB402B407768134040
:10068000E26A4033D7402F40226B1F40736820003E
:10069000D34001212B40803F1F4000F077FB2369AE
:1006A00038009D40B561F8BDF8B5DE4657464E4668
:1006B00045469946284BE0B51700D2089A5CB0230E
:1006C0000F261A430C00110090460500FFF784FE28
:1006D000330001342340190028009A46FFF77CFEBE
:1006E00031001026240921403143C9B22800FFF708
:1006F00073FE2800FFF78CFF2800FFF789FF4146B3
:1007000083462800FFF768FE344351462800FFF770
:1007100063FE2800E1B2FFF75FFE4B46002B0FD0CF
:10072000072380213B4019415B460B432800D9B287
:10073000FFF7E0FEF0BCBB46B246A946A046F8BDB6
:10074000072280233A401341594699432800C9B2F1
:10075000FFF7D0FEEEE7C04628580010F0B5DE46A1
:1007600057464E464546E0B501252A008368D02409
:100770009A40240662622A00C36829009A40626295
:100780002A00036906009A4062621300026883B07F
:1007900091406162290042682F009140616201210D
:1007A000A36100F0F3FA2A00736864209A40A26102
:1007B00001F02CFA2A00736864209A40626101F00B
:1007C00025FA2A00B36828009A40A26193462A00BD
:1007D000736929009A40626192462A00B3699A407F
:1007E000626191462A00F3699A40A26190462A000C
:1007F000336A9A40A26194462A00736A9F40B36AA2
:10080000A7619840F36A60619940336BA1619A4097
:10081000009262612A00F3689A400192A2612A0064
:1008200033699A4013006261A2615A46A26152463E
:10083000A2614A46A2614246A2616246A261A761E4
:100840006061A161009A6261019AA2615A46636186
:10085000A361A2615246A2614A46A2614246A261D8
:100860006246A261009AA761A06161616261019A1A
:10087000A2615A466361A361A2615246A2614A46DF
:10088000A2614246A2616246A261009AA761A0618C
:100890006161A261019AA2615A466361A361A2618A
:1008A0005246A2614A46A261424662616246626164
:1008B000009AA7616061A161A261019A3220A261E0
:1008C0006361A36101F0A2F92A00B36832209A4063
:1008D000A2612A0073699A40A2612A00B3699A4012
:1008E00062612A00F3699A4062612A00336A9A4081
:1008F00062612A00736A9A40A2612A00B36A9A4030
:1009000062612A00F36A9A40A2612A00336B9A401E
:10091000A2612A00F3689A40A2612A0033699A40D2
:100920006261A26101F072F92A00B3680A209A405C
:10093000A2612A0073699A4062612A00B3699A40F1
:1009400062612A00F3699A4062612A00336A9A4020
:1009500062612A00736A9A40A2612A00B36A9A40CF
:1009600062612A00F36A9A40A2612A00336B9A40BE
:10097000A2612A00F3689A40A2612A0033699A4072
:100980006261A26101F042F92A00B3689A40A26153
:100990002A0073699A40A2612A00B3699A40626191
:1009A0002A00F3699A4062612A00336A9A40A26180
:1009B0002A00736A9A40A2612A00B36A9A4062616F
:1009C0002A00F36A9A40A2612A00336B9A40A2611E
:1009D0002A00F3689A403369A2619D406561A56170
:1009E00003B0F0BCBB46B246A946A046F0BDC04627
:1009F000F0B5DE4657464E464546E0B583B00400A6
:100A00000191FFF7ABFE01221000A36861699840D5
:100A1000D0231B06986182461000884058618146A9
:100A20001000A16917008840586180461000E169F4
:100A3000160088401500586184461000216A8F40D6
:100A4000616A5F618E40A16A9E618D40E16A5D616D
:100A50008840009098611000216B8840586183465F
:100A60001000E1688840986101002069824050468A
:100A70005A619A619861484698614046986160461B
:100A8000586100989F619E615D6198615846586108
:100A9000504699615A619A6198614846586140464A
:100AA00098616046986100989F619E619D61986120
:100AB0005846586199613F215A619A61019B200013
:100AC0001940FFF789FC03B0F0BCBB46B246A9460B
:100AD000A046F0BDF0B5DE4657464E464546D0240A
:100AE000E0B55D4B87B0059001932406019B059D01
:100AF000197850235B4219432800C9B2FFF76CFCF8
:100B00000121AB6801279940A1618B4601216B69E6
:100B10000126994061618A460121AB692A0099400A
:100B2000A16189460121EB6901209940A1618846B4
:100B300001212B6A99406B6AA1619F40AB6A8C4688
:100B40009E40EB6A012501219D40136BA7619840EF
:100B5000D368A6619940136901229A405B46A5615A
:100B6000A061A1616261A261A3615346A3614B468A
:100B7000A3614346A3616346A3615B466761A661C7
:100B8000A561A061A1616261A261A3615346A361F5
:100B90004B46A3614346A3616346A361A7616661B7
:100BA00065616061A1616261A261029767468C46DE
:100BB00059460396464680460495009104994D4651
:100BC000894603995046C24688460299E3468123E6
:100BD0008C460099013B61616146A061A561A661F7
:100BE000A761A1614146A1614946A1615146A16148
:100BF0005946DBB2A1616261A261002BE9D1634673
:100C0000BC464746B0464E46A946554682460098E1
:100C10008346280035003E001F005B46A361534613
:100C2000A3614B4663614346636163466361019B15
:100C3000A761666165616061A1616261A261074A45
:100C400001330193934200D050E707B0F0BCBB469C
:100C5000B246A946A046F0BD2858001030580010F2
:100C6000F0B54F464646D6469A46C0B5904608AAC5
:100C7000167809AA12788A4407000D00914651455A
:100C800015DA4644B0450EDA802D0CD84446402C87
:100C900005D84B46220029003800FFF705FD013436
:100CA000E4B2B442F3DB0135EDB25545EADBE0BC1A
:100CB000BA46B146A846F0BD10B50400006800F081
:100CC000A9F8606800F0A6F8A06800F0A3F8E06852
:100CD00000F0A0F8206900F09DF8606900F09AF833
:100CE000A06900F097F8E06900F094F8206A00F03D
:100CF00091F8606A00F08EF8A06A00F08BF8E06A64
:100D000000F088F8206B00F085F810BD10B5836006
:100D1000029B0160C360039B42600361049B04006B
:100D20004361059B8361069BC361079B0362089B2C
:100D30004362099B83620A9BC3620B9B0363FFF7B9
:100D4000BBFF01231900626918009140D0221206EE
:100D50005162A169884050621800E1698840506280
:100D60001800216A884050621800616A8840506209
:100D70001800A16A884050621800E16A8840216B1F
:100D800050628B402000536210BDC046012310B555
:100D90001C0042699440D022120600291CD05462E3
:100DA0001C0081698C4054621C00C1698C405462F3
:100DB0001C00016A8C4054621C00416A8C405462E1
:100DC0001C00816A8C4054621C00C16A8C40016B1B
:100DD00054628B40536210BD94621C0081698C4048
:100DE00094621C00C1698C4094621C00016A8C40B2
:100DF00094621C00416A8C4094621C00816A8C40A1
:100E000094621C00C16A8C40016B94628B409362B7
:100E1000E1E7C0460123D02283401206936293612A
:100E2000094A40219446830063441A68C0004A403E
:100E3000803111408022520113431960034B9C46BC
:100E4000052360444360704704C0014000400140F6
:100E500070B5EFF3108C72B60D4D2B68002BFCD0E3
:100E6000BFF35F8F0724CB08C618C05C01230C407A
:100E7000A3401C000440034207D118433070BFF365
:100E80005F8F2C608CF3108870BD100001F00EFB9A
:100E90002C0100D0F8B54746CE46884680B5EFF322
:100EA000108C72B6214D2C68002CFCD0BFF35F8FE4
:100EB0009A422CD8D4080727055D0619012417404B
:100EC000BC402C421FD007210127894609E0D408E5
:100ED000055D06194C4639001440A1400C0029421A
:100EE00011D001329342F2D201204042BFF35F8F12
:100EF00000220E4B1A608CF3108800280FDBC0BC58
:100F0000B946B046F8BD254310003570EEE7BFF393
:100F10005F8F00232B608CF31088012040424346F2
:100F2000002BECD0089801F0C1FAC0462C0100D08B
:100F3000024B18688007C00F7047C04600C00640CB
:100F40000021044B044ABFF35F8F02C39342FAD1DE
:100F50007047C046000100D0800100D0044A1078DC
:100F6000431CDBB2172B00D9102313707047C04607
:100F70008803002010B5064B064C82B00100009398
:100F800018221F232000FFF785FF02B010BDC046C6
:100F900030580010EC0C002001238340002904D0BD
:100FA000034A1360034A13607047034A1360FBE768
:100FB00080E200E000E100E080E100E00123834006
:100FC000014A13607047C04600E200E0084B103051
:100FD0009B688000C358002B07D0064A00209B1A4C
:100FE0002F229A424041C0B270470020FCE7C04621
:100FF00000ED00E08C030020024B10309B68800065
:10100000C058704700ED00E070B50D00EFF310869A
:1010100072B60F4A1368002BFCD0BFF35F8F0D4BE5
:1010200010309B6884001B590B4A934203D09D42A9
:1010300001D001F053FA074B9B681D51BFF35F8F3E
:10104000BFF35F8F0022024B1A6086F3108870BDD9
:10105000240100D000ED00E0CD010010F0B55746AE
:101060004E46DE464546E0B585B0060001911700C4
:10107000EFF3108B72B6664A1368002BFCD0BFF3F7
:101080005F8F0025634B5D579A46002D00DAA3E081
:101090006B00614C02935B199B009846A146C144CA
:1010A0004B4652469B79103613705C4BB2009B68DE
:1010B000009299580B1B2F2B34D9594B994200D0D1
:1010C000A3E0029B42469C46564B6544AD006353E9
:1010D000554B0232A218043B9B1A1B05534A5B0D69
:1010E000651913436B80524B0121AB80FF23AB7119
:1010F000019BEF71AB604B460B431900474B009AC5
:101100009B689950BFF35F8FBFF35F8F0022404B06
:101110001A608BF3108805B0F0BCBB46B246A946F6
:10112000A046F0BD01200A008243D379BB422FD8EC
:1011300045464E4613003F491B1B5B415943090D71
:10114000384B6353384B02356519043B5B1B1B0559
:10115000364D5B0D2B4373800426B446E044131FC9
:1011600044441B1B1B055B0D1D434B4699710199A4
:101170009D8099604946DF712F4B01431360BDE7A5
:101180005800C01880002018C679BE422AD9020033
:101190000623D356002BF3DA101D8246BD20000231
:1011A00003900426504676424E44361A3005400DD0
:1011B000844666461D48957106439680029A944679
:1011C0006544AA00A4181C4AA3712260019B039ADB
:1011D000E771A280A36091E701F080F900255346F2
:1011E0005D5755E7101D82469088400500158446DE
:1011F0004046D444664604302018301AE0260005E4
:10120000400D360230430390CBE701F067F958E711
:10121000240100D0FE1100208C03002000ED00E02E
:10122000CD01001000A1FFFFBC03002000E0FFFF84
:1012300000BDFFFFAAAA000001488047F0B5DE46C6
:1012400057464E464546E0B50C0083B0EFF3108A92
:1012500072B65A4A1368002BFCD0BFF35F8F10227E
:10126000914681444A46564B96009B689D59554B82
:1012700098469D4205D0A54216D0534FEB1B2F2B0D
:1012800014D94F4B9B689D51BFF35F8FBFF35F8FA6
:1012900000224A4B1A608AF3108803B0F0BCBB46A8
:1012A000B246A946A046F0BD1D00EAE701238340EF
:1012B0009B465A46454B1B681A4000925A46444B7F
:1012C0001A60BFF35F8FFEF7CEFF0190002803D0B6
:1012D000814501D001F002F901232A009A43936865
:1012E0009C4208D15FE04B005B189B00FB1899689B
:1012F000A14211D01A00062151560029F3DA009BB1
:10130000002B05D05A46334B1A60304B1A60B8E7B1
:101310005A462F4B1A60B4E706215956002921DBA3
:101320004A00501880003C188046A0689860E07918
:10133000D871062020569871002824DBA488F81A5A
:101340006405241544440019E0240005400D2402DE
:1013500020439880204B521818789200BA18907148
:101360001970CCE70199002910D1FF3191711B4907
:10137000918019490A789A71194ADB1B5B415A43DB
:10138000120D0A70BBE7BD200002E2E7154A1649BC
:10139000D21A083A5002400D01439980134952086D
:1013A0000A43DA80ABE70621515613000029B7DA69
:1013B000019A002AEAD14546DBE7C046240100D065
:1013C00000ED00E0CD0100108C03002000E100E002
:1013D00080E100E080E200E0FE11002000BDFFFFA0
:1013E000AAAA0000C603002000F0FFFF00F8FFFFDC
:1013F000F8B5012504000543FEF735FFEFF3108C27
:1014000072B6214A1368002BFCD0BFF35F8F1F4ECA
:101410002100B7681E4A1F4B891A49414B431B0DD7
:1014200059B28300F858A8421CD00623D3568B42E9
:101430001CD01223D3568B4222D01E23D3568B426C
:1014400020D02A23D35603208B4210D0124B1A7877
:101450001970A271BFF35F8F00220B4B1A608CF3DF
:101460001088F8BDB2680D48D050EFE70020430067
:101470001B189B00D218FF239371094B9380E5E75B
:101480000120F4E70220F2E7240100D000ED00E0A3
:101490008C030020AAAA0000FE110020CD0100103C
:1014A00000BDFFFF054B064A1360064A13605360F8
:1014B0009360D36013615361936170478080808033
:1014C00000E400E004E400E0D02200B51206084B7E
:1014D0000100106883B01818064B00220093052302
:1014E000FFF7D8FC002801DB1F23181A03B000BD4A
:1014F000F81100204C580010024B9C4661448900B2
:10150000016070474000003483680B4810B5844682
:10151000614462441201090159189B185C684A68C9
:101520000120944201D802D00020C0B210BD1A6838
:101530000B689A42F9D8F7E7FFFFFF0F0A4B1968CB
:10154000EFF3108072B60A68002AFCD0BFF35F8FF9
:101550001B68BFF35F8F00221A6080F3108840BFC2
:10156000002000217047C046C8110020F8B557463A
:1015700045464E46DE46E0B599460CAB1C780DABB1
:101580001B78070090469A460568002C44D1AC7B36
:10159000002C3BD0660029683619033E89194B7828
:1015A000AB73002B00D1EB7300238B704B700B706F
:1015B0002E4BE218BB6812019B1842461A604A463D
:1015C0005A600A9A9A600B9ADA6000238B704B700B
:1015D0000B706B7B9B46002B32D022005946A868CB
:1015E0006B68984700281DD05B46584629685B0009
:1015F0005B448E19033BB070CA18CB5C002B00D043
:1016000073705B4614706B735C451AD0F0BCBB46BC
:10161000B246A946A046F8BD660029683619033EC1
:101620008919C5E75B465B002A685B44033BD31816
:101630009C709119925D002A00D05A705B460B7025
:101640006C7342464B46387D00F024FC051E02D0E8
:101650005346002B04D00E9B002BD7D01D70D5E72E
:101660002100386800F03EFEF5E7C046FFFFFF0F9F
:10167000F0B5DE464E46574645460023E0B58DB0F0
:101680000A936B4B8200D3580B90994600239B46DC
:101690004B46079300F09EFB079C06000F00626814
:1016A000EFF3108572B61368002BFCD0220007946C
:1016B000BFF35F8F2468637B9946002B66D09268E6
:1016C0005C4B90464B441B01984443461A685B6848
:1016D00010001900801BB94100295EDD0B9800F055
:1016E000D9FB00230026984600279A46079C63688A
:1016F000BFF35F8F5A461A6085F310885346002B5C
:1017000008D10028C6D10DB0F0BCBB46B246A946F0
:10171000A046F0BD0A9B414618024B461843D047ED
:10172000089009916268EFF3108572B61368002B78
:10173000FCD00794BFF35F8F0899099A002A47DB12
:10174000114303D0079B1B69002B5CD1079B1B68CF
:10175000D97B002906D01A6848004118521849461A
:10176000033A51704A46DA734B46079A013BD168F7
:10177000CA5C0132CA545B46079A13615368BFF3CF
:101780005F8F5A461A6085F3108883E7002300268E
:10179000984600279A460020A8E7002901D1002892
:1017A0009CD10021200000F01FFD43461E685F68A9
:1017B0009B68079A9A464346DB689846D3684B4431
:1017C000013B1B780A931B020343136100208DE742
:1017D0002369002BBAD033003C005B1A94411A00F5
:1017E0002300A74219D89F421BD0594604910121DA
:1017F0000391494602914146019151460798009153
:10180000FFF7B4FEB7E700F0E5FA089A099B060077
:101810000F0092197B419942E5D901225242D31718
:10182000E3E79642E1D901225242D317DDE7C046F1
:10183000AC110020FFFFFF0FF8B557464E46454656
:10184000DE46E0B5404D81468A466A68EFF310886F
:1018500072B61368002BFCD0BFF35F8F2E68B47B89
:10186000002C38D0670033683F19033FDB195A78E2
:10187000B273002A00D1F273344AA118AA68090190
:10188000521849461160514651603149916000211A
:10189000D160997059701970737B9B46002B36D0BC
:1018A00022005946B06873689847002821D05B46EB
:1018B000584631685B005B44CF19033BB870CA18C7
:1018C000CB5C002B00D07B705B46147073735C455F
:1018D0001ED0002627E06B68BFF35F8F1C6088F383
:1018E000108801204042F0BCBB46B246A946A04643
:1018F000F8BD5B465B0032685B44033BD3189C70C9
:10190000D119D25D002A00D05A705B460B707473F7
:101910004A465346287D00F0BDFA061ED9D0210064
:10192000286800F0DFFCEB681B19013B19786B6835
:10193000BFF35F8F00221A6088F310880020002E0A
:10194000D1D108022043CEE7D4030020FFFFFF0FD0
:101950003D15001010B5124C6368002B04D00A210D
:101960001048FFF7C9FD10BD23000F4A1021206861
:1019700000F052FB032000F021FA032000F0FAFAF5
:1019800003200A4900F040FAFFF7E8FA084B9C46AA
:10199000032360442375074B80006060DC60DEE752
:1019A000D4030020C8110020091500107116001082
:1019B00040000034AC11002000487047D4030020E0
:1019C000F0B54E465746DE464546E0B585B0019334
:1019D00010AB1B780600039300239A4699460092A9
:1019E0007268EFF3108B72B61368002BFCD0BFF354
:1019F0005F8F3568AC7B002C00D17FE067002B68DF
:101A00003F19033FDB195A78AA73002A00D1EA7301
:101A1000524AA118B2680901521800980199106041
:101A200051600E9991600F99D1604A469A705A7030
:101A30001A706B7B9846002B00D176E0220041465D
:101A4000A8686B689847002861D0434640462968DB
:101A50005B004344CF19033BB870CA18CB5C002B22
:101A600000D07B70434614706B7344455ED0F368BE
:101A70001B19013B18787368BFF35F8F4A461A60E1
:101A80008BF310885346002B08D10002204305B089
:101A9000F0BCBB46B246A946A046F0BD039B002B56
:101AA0005AD00E9B00200F999847030004000D00A8
:101AB0000B4351D000290DDA0098019902000B0068
:101AC000121BAB41994213D83DD000920193039B66
:101AD0009A4685E700F07EF902000B00A4185D41EC
:101AE00000940195A94203D8F1D100998A42EED918
:101AF00001235B42DC1700930194E8E77368BFF3AE
:101B00005F8F1C608BF3108801204042BFE7434683
:101B10005B002A684344033BD3189C70D119D25D03
:101B2000002A00D05A7043460B706C73307D009AC7
:101B3000019B00F0AFF98246002898D02100306860
:101B400000F0D0FB93E700999142BED901235B429C
:101B5000DC1700930194BAE7002098E7FFFFFF0F1E
:101B6000F0B504000D0006267642F717C646361972
:101B70006F4100B58F4213D810D000F02BF932001E
:101B80003B00121A8B41002B14DC002B37D02900AC
:101B9000200000F029F980BCB846F0BD8642ECD99F
:101BA0000026002700F016F932003B00121A8B4184
:101BB000002BEADD30003900FFF73EFE0028E6DBAF
:101BC00000239846BC460F4A0F4F7B6A9C4504D8B9
:101BD000B96A8E42DBD99C45D9D11168EFF31080E8
:101BE00072B60B68002BFCD0BFF35F8F1368BFF396
:101BF0005F8F4146196080F3108820BFE5E7002A17
:101C0000C5D0D7E7C81100200040054070B50600D8
:101C100000F0E0F8FA2204000D000023300000215B
:101C2000920000F057FF001969418D4205D802D09B
:101C3000FFF796FF70BD8442FAD901204042C117D8
:101C4000F6E7C046F8B5CE46474680B506000C001C
:101C5000FFF7F2FD031E11DC284A0020536A9C4264
:101C600003D8926A0130B24203D3C0BCB946B04631
:101C7000F8BDE31A5A1E9341D8B2F6E720BF204DB3
:101C80006968EFF3108872B60A68002AFCD0BFF3C7
:101C90005F8F2868D9B2427B8A4221D0FF22076831
:101CA0001A40B9465700BC464F4694446744033F28
:101CB000BF78002F0FD0EF681B0ABA18013A1278CC
:101CC000DBB29A4216D06B68BFF35F8F00221A60B6
:101CD00088F31088C0E72A699342F4D12F61F2E7B4
:101CE000FF22EF681A40BA18013A1B0A1278DBB2D9
:101CF0009A42E8D100F0F6FAE5E7C0460040054018
:101D0000D4030020F0B5D6464F464646C0B5EFF3A3
:101D100005823F23134018001038EFF3108C72B681
:101D200020490A68002AFCD0BFF35F8F0122170008
:101D300087401D4C1600A24667631C4C2578A046C0
:101D40002C00C4402640224209D1BFF35F8F0E60B1
:101D50008CF31088E0BCBA46B146A846F0BD5246A6
:101D6000566A134A8400A25896420ED34246114B3B
:101D7000BD43E3581570BFF35F8F00220A608CF3F8
:101D80001088002BE6D09847E4E70B4A9B0090466A
:101D900043441A681A60BFF35F8F00230B608CF313
:101DA0001088D7E7280100D000400540011200202C
:101DB000D4110020DC0B0020D03F054010B5034BB0
:101DC00001001800024AFFF743F810BDFD11002082
:101DD00068580010034B596A0A00986A596A8A4287
:101DE000FAD1704700400540064A536A9942FCD830
:101DF00007D1044B02E05A6A914202D19A6A8242A8
:101E0000F9D370470040054070B504000D00EFF3B2
:101E1000108672B61A4A1368002BFCD0BFF35F8F8E
:101E2000002D1BD02000FFF7E7F8164981420AD0A9
:101E30002000FFF7E9F801212000FFF7ADF80123AA
:101E4000A340114A1360114BA400E550BFF35F8F0C
:101E500000220B4B1A6086F3108870BD0121A1404F
:101E60000A4BA200D5500A4B20001A788A43054934
:101E70001A70FFF7E3F900212000FFF78DF8E5E77E
:101E8000280100D0051D001038600540DC0B002043
:101E900001120020F0B54F46D6464646C0B50700B1
:101EA0002F4C616A0D00A66A616AA942FAD18B4281
:101EB00008D805D00120E0BCBA46B146A846F0BD1E
:101EC000B242F7D9EFF3108A72B6264801680029AA
:101ED000FCD0BFF35F8F0125BD402349204C8846CD
:101EE000097889462943C9B28C4641466046087044
:101EF000391D890065630A511C49B8004350216AA5
:101F00000020294219D0616A0800A66A616A8142EC
:101F1000FAD18B4219D801D1B24216D8CC451DD086
:101F20000F4B1F221D625D6301233A409340104A0C
:101F30000120136043464A461A70BFF35F8F0022A8
:101F4000084B1A608AF31088B5E70020BFF35F8F53
:101F50000022044B1A608AF31088ACE70120ECE7FA
:101F600000400540280100D001120020D4110020BB
:101F700080E200E0EFF3108C72B60A490B68002B88
:101F8000FCD0BFF35F8F01238340074A07481362E9
:101F900002789A430270BFF35F8F00230B608CF3CB
:101FA00010887047280100D0004005400112002031
:101FB00070B5050014001600002915D00C00002A89
:101FC00012D080686B689847296800280ED073008B
:101FD0009B196200033B1219CB18033A9C708818B6
:101FE0008A5C002A15D10670200070BD63001B19A1
:101FF0007200033B9219CB18033A9E7088188A5CD2
:10200000002A02D104703400EEE75A7004703400E4
:10201000EAE75A700670E7E730B583600023CCB278
:1020200043730133047342608373C4730D0000680B
:10203000012C06D9421C0133DBB2137003329C42DF
:10204000F9D1FF2129404B005B18C0180023033849
:10205000437030BDF8B505000C1E07D06300016861
:102060001B19033BCB185A78002A01D12000F8BD78
:10207000500080180338091800204F78487021005C
:1020800058702800FFF794FF390006002800FFF77A
:10209000E1FF0400002EE9D0002826D03100220004
:1020A000A8686B689847296800280FD063001B193F
:1020B0007200033B9219CB18033A9E7088188A5C11
:1020C000002A00D05A7004703400CFE773009B19C7
:1020D0006200033B1219CB18033A9C7088188A5C83
:1020E000002A00D05A700670C0E73400BEE7C04630
:1020F000F0B557464546DE464E46E0B50D006B004E
:1021000001685B19DF1E0400C85D83B00192CA1923
:1021100000284CD043001B18033BCB185E78B44614
:10212000002E16D1019E002E3ED0E67B002E04D05C
:1021300073009B19CB18033B5D70E57300282FD10A
:102140000023537003B0F0BCBB46B246A946A0467C
:10215000F0BD72006244033A8A1851788846002123
:10216000517089465970320001002000FFF720FFAE
:1021700043468246002B07D05B0021684344033B63
:10218000CB185A78002A16D1424651462000FFF754
:102190000FFF2168019BCA19002BC6D10028CFD0A0
:1021A00043001B18033BCB1800219970C8E7019B23
:1021B000002BBAD1C4E750008018033809184878BA
:1021C000834648464870587041462000FFF7F0FEAD
:1021D000594680462000FFF73DFF4146020020009F
:1021E000FFF7E6FE8046CFE7F0B557464546DE46A8
:1021F0004E46E0B583B00191457B04006B0000685A
:102200005B19DF1EC15DC21900294ED04B005B185F
:10221000033BC3185E78B446002E18D1019E002EF1
:1022200040D0E67B002E04D073009B19C318033BFB
:102230005D70E573002931D100232800537061736C
:1022400003B0F0BCBB46B246A946A046F0BD720042
:102250006244033A821850788046002050708146CC
:10226000587032002000FFF7A3FE43468246002B41
:1022700007D05B0021684344033BCB185A78002AFF
:1022800017D1424651462000FFF792FE019B010004
:102290002068C219002BC4D10029CDD04B005B1897
:1022A000033BC31800209870C6E7019B002BB8D1F0
:1022B000C2E750008018033809184878834648461A
:1022C0004870587041462000FFF772FE594680461C
:1022D0002000FFF7BFFE414602002000FFF768FE26
:1022E0008046CEE770B5040000292CD0437B8B429A
:1022F0002ED0056848004018033828188278002A34
:1023000021D053009B18033BEA5CEE188A4202D1AD
:102310001BE0002A08D053009B18033BEB185A78A7
:102320008A42F6D142785A700023012283704370AA
:102330002000FFF7DDFE617B02002000FFF738FE82
:102340006073012000E0002070BD43783370EBE73C
:1023500001221900FFF7CCFE60730120F4E7C046AC
:1023600010B50400FEF7FAFD01002000FFF7C4F8E5
:10237000FF232371BFF35F8F10BDC04610B504006B
:10238000FEF7ECFD01002000FFF7B6F8FF23A38065
:10239000BFF35F8F10BDC04610B504000120FEF7EB
:1023A000E9FD044B9C46604480002060BFF35F8FD2
:1023B00010BDC046400000342C4B2D4A70B51A6049
:1023C0002C4A2D4B2D491A6014008B689C43FBD17D
:1023D0002B4D2C4EB54208D2013E761BB60808CDD7
:1023E000984723000134B342F9D100F07DF8264A22
:1023F000214B1A60214A9368DB43DB01DD09002B86
:10240000F9D14022214B224C224E9A675A671A6713
:10241000DA66B44208D223682000002B20D00834AA
:10242000FFF7ACFFB442F6D31B4C1C4EC022B16880
:10243000200000F0BFFBB460FEF782FDFFF732F82A
:10244000FFF788FA164C174EB44208D2013E361BED
:10245000B60808CC98472B0001359E42F9D170BDD3
:102460000834FFF77DFFB442D5D3DDE700E000403C
:10247000BFCDFBFEFE7F3C0000F0004000C00040EE
:102480006804002078040020FFFFFF0100F00140F5
:1024900060040020680400200000002000ED00E03F
:1024A000780400208004002000BEFDE70FB400B5D2
:1024B000084883B000F0B4FC049B002B07D005A9AA
:1024C0001800019100F02EFA034800F0A9FC00BEAC
:1024D000FDE7C0468C5800109C58001010B501480C
:1024E000FFF7E4FFA058001010B50C2082B000F0F8
:1024F000A7F9FEF71DFD00280ED0854B854A1A600E
:102500005A609A60DA601A615A619A61DA611A62F5
:10251000814A5A6202B010BD804CA06700F0E6F913
:1025200001227F4B1A60636C012BFCD103227D4B8F
:102530001A607A4A936B012BFCD1013301217A4A4C
:102540007A480093043300F027F90523784A009372
:102550000121784800F020F9774B5A68FF2A02D809
:10256000802252005A6080226E4B694C12011A6020
:102570002169002905D0606900F026FA0130013890
:10258000FDD1E0226C4B6D4819680A4002600222BE
:102590001968514001320A40042102609A681142D0
:1025A000FCD08021664A09011160802252005A60E5
:1025B000644B2361644B5968FF2900D85A60032299
:1025C0000121574B1A60604A93681942FCD0E023FE
:1025D000106803405D480360126803234A400221EB
:1025E0001340594A036093681942FCD08021584B2C
:1025F000090119608021574B490051606361564BB6
:102600005A68FF2A00D859608022544B12011A6080
:10261000E169002905D0606900F0D6F90130013880
:10262000FDD1E0234C4A11680B404D490B608021DD
:102630004C4B090119608021364B49005160E36120
:10264000494B5A68FF2A00D859608022474B120133
:102650001A60216A002905D0606900F0B5F90130DF
:102660000138FDD1E023404A11680B4040490B601E
:102670008021404B0901196080235B005360802258
:10268000244BD20223623C4B5968914200D25A60DB
:1026900080223A4B12011A60616A002905D06069F4
:1026A00000F092F901300138FDD1E023324A11687F
:1026B0000B4033490B608021324B090119608023A4
:1026C000DB025360144B63622F4B5A68FF2A02D817
:1026D000802252005A6080222C4B12011A60A1699C
:1026E000002905D0606900F06FF901300138FDD193
:1026F000E023254A11680B4025490B608021254BBA
:102700000901196080235B005360124BA36101E74C
:10271000F00C0020006CDC021BB7000000800040C1
:102720003CB0004030B00040002F685900800240AB
:10273000008C864700C0024030800040309000404E
:1027400030A00040001BB7003C8000403C9000409F
:102750003CA00040405973075480004054B00040F2
:102760005490004054A000406080004060B00040A1
:102770006090004060A000406C8000406CB0004061
:102780006C9000406CA000404880004048B0004081
:102790004890004048A00040F8B504000C20170005
:1027A0001D000E0000F010F943011B1A9901C91A0F
:1027B000C90009188901380000F006F9069B2904B0
:1027C0001B0319432368002B20DB194B194DE31819
:1027D0005A4253418022520194461B03164A6344D5
:1027E0001360164A13601F00AA689743FBD1C023E9
:1027F000221D9B01134321222660A0601A602268DB
:10280000002AFCDA0822E1601A60F8BD3F23226842
:102810001340B342D9D1A3681B051B0D8342D4D109
:10282000EE22E368D20213408B42CED1EDE7C046E0
:102830000040FDBF00C0004000E0004000F000404C
:102840008023024A9B000343D36270470080054007
:1028500010B5140080221C4BD2051A6000281AD033
:1028600001231A4A18431A4BDA611A4A42401A6283
:10287000596298628022144BD2051A601649174A91
:102880001160E022D2041A60002C07D18022144B80
:1028900012061A6010BD0E4BD861EBE763011B1BDB
:1028A0009A008023121912015B049A4208D20D4B40
:1028B0001A60074B5A608022094BD2051A60E9E77B
:1028C000084B094A1A60F4E700B00540D3C007B0CE
:1028D000008005402D3FF84FFCFF0100082001401B
:1028E00000A005408C110020FFFFFF00AA23064A2C
:1028F0001B0113602F230549D360054B19605368F2
:10290000002BFCDA7047C0460040024000B0FA00DD
:102910000060024010B5002800D110BD00F030FA70
:10292000FBE7C04610B5094A0300146884B0002CC8
:1029300008D0012200910648524203A9A047012075
:1029400004B010BD00F06CFA0020F9E788110020F7
:102950001529001001480421014B184700040020EC
:1029600085290010142310B50100188804331B8832
:10297000984710BD162310B50100188802331B8834
:10298000984710BDF8B54746CE4680B50F1E19D002
:1029900014239946043304000025012698464B462B
:1029A0001888434621681B88984701C4431E9841F4
:1029B000013540420640AF42F1D13000C0BCB946BB
:1029C000B046F8BD0126F8E7114A936F9B0813D271
:1029D00010665166002905D0FFE7FFE7FFE7516F5A
:1029E000106F704704B5002801D00020C04302F0EA
:1029F000F3FE002104BDC046F0B5146E556E576F4E
:102A0000166FFFF7E5FF1466556657671667F0BD4A
:102A1000000000D0132370B51D78012D15D010DDF6
:102A20001C48FFF7A7FF1C4C01008022200000F08B
:102A3000C1F8022D06D01948FFF794FF184B186013
:102A400070BD154C174BA364F5E7164B124C236071
:102A50006360A360E36023616361A361E361236258
:102A60006362A362E36223636363A363E363236438
:102A70006364A364E36423656365A365E365236618
:102A80006366A366E36623676367A367E367A3647C
:102A9000D1E7C04653440000880500204C330000B5
:102AA000C4110020A92A001007B5604601880A0A4F
:102AB0000230DF2AFAD1C9B2820804D302884088E2
:102AC0000004104300E00068014A5050039007BD25
:102AD0008805002051434343C9188C46110C83B22A
:102AE0004B4310B4040C614392B280B25043624332
:102AF0001C041B0C001910BC59411304120CC01803
:102B00005141614470470000132310B512481C78EE
:102B1000FFF730FF0100012C0AD003DD80220F48AF
:102B200000F048F80E48FFF71DFF0E4B186010BD6F
:102B30000A4C5422200000F03DF80B4B6365A3655E
:102B4000E36523666366A366E36623676367A3673B
:102B5000E3672362E361E5E753460000880600204F
:102B60004C330000C41100206D2B001007B56046E7
:102B700001880A0A0230DF2AFAD1C9B2820804D3D6
:102B8000028840880004104300E00068014A505069
:102B9000039007BD8806002001480421014B184717
:102BA0001004002085290010014B1B681847000005
:102BB00010040020014B5B6818470000100400203F
:102BC000030010B5080011001B68984710BDC046EF
:102BD000F0B546464F46D646C0B5437C80460E000B
:102BE0001700002B46D0002A3FDD4B1E9946244B90
:102BF0000125002400209A460DE04B461B5D0D3B4D
:102C00005A425341325DDBB20A2A0BD02B00013409
:102C100001359F421ADD002CEFD14346325D1B7C0B
:102C20000A2AF3D1002BF1D1A04204DA4346211A3B
:102C30001B6830189847434650461B680221984746
:102C4000013428002B0001359F42E4DC874204DD7B
:102C50004346391A1B6830189847F619013E3378F5
:102C60000D3B5A42534142461374E0BCBA46B1464A
:102C7000A846F0BD0368110030009847F5E7C0464C
:102C800008590010F0B557464E464546DE461C0032
:102C9000D023E0B51B061F68344B83B006000D003F
:102CA000180001A991469A4602F09EFD8046002830
:102CB00008D1019B7FB29F4204D0504602F0A4FD90
:102CC000012398466B1C03D1300002F045FD05003E
:102CD000002C27D1264F274B1C68002C18D04B46C0
:102CE000002B21D1244B994602E0E468002C0FD040
:102CF0002368002BF9D04B461B68002B01D0A34260
:102D0000F3D120002A003100B847E468002CEFD14D
:102D10004346002B25D103B0F0BCBB46B246A946C2
:102D2000A046F0BD154FD6E7134B99460A239B46A4
:102D300002E0E468002CEBD02368002BF9D04B466E
:102D40001B68002B01D0A342F3D12A0031002000E0
:102D5000B8475A466B4620001A7101A90122B847AC
:102D6000E7E7504602F030FDD5E7C046600400209A
:102D7000D12B0010800D0020840D0020C12B0010ED
:102D8000F0B5CE46474680B583B06B46DE1CD023F7
:102D900030701B061C681F4B804601A9180099461D
:102DA00002F022FD071E20D01B4B1C68002C28D0EF
:102DB0001A4D02E0E468002C0FD02368002BF9D0F4
:102DC0002B68002B01D0A342F4D120000122310056
:102DD000FFF7FEFEE468002CEFD1002F11D1404632
:102DE00003B0C0BCB946B046F0BD019B64B29C4282
:102DF0000BD0484602F008FD074B01271C68002C49
:102E0000D6D1484602F0E0FCE9E7034B1C68002CF1
:102E1000CED1E4E760040020800D0020840D002066
:102E200070B5040002F098FC0023010005000122A7
:102E30002000FFF727FF084B1C68002C06D06368B2
:102E4000002B05D09847E468002CF8D1280070BD0D
:102E5000E468002CF3D1F9E7800D00200A4A1368DA
:102E6000002B05D10CE01A00DB680C32002B07D0D8
:102E70009842F8D1002902D1C3681360C16070473D
:102E80000029FCD01060FAE7800D002010B500F09A
:102E90003FF910BD7047C0460022014B1A707047C1
:102EA000FF1100204B790020FF2B0BD18B79002BD9
:102EB00008D1CB79012B05D1082A03D9024B8A7896
:102EC00009301A707047C046FF110020012070477A
:102ED00070B5002915D115495379107909781B026D
:102EE00003430020994200D070BD5378012B0AD0D3
:102EF000022BF9D1002064220021FFF7A9FC012058
:102F0000F2E70120F0E79478D2780500120214432A
:102F1000D20502D5620A93401D000548FFF722FD45
:102F20007F210300214028009847C046FF11002060
:102F30005542000001230370004870470C590010EF
:102F40004B780A781B0213438A7810B512041A438F
:102F5000CB781B0613439622D200934200D010BDBB
:102F60000348FFF7FFFC0021030008009847C04614
:102F70005542000070B5184C82B006000D002000CC
:102F800001A902F031FC002808D1D0231B06019AC8
:102F90001B689A421CD0200002F036FC002001F091
:102FA000B9FD002807D103256D42200002F00CFC7A
:102FB000280002B070BD002001F0C4FD0028F2D04E
:102FC0002A003100002001F0C9FD051EEBD0ECE71E
:102FD00003256D42ECE7C046CC110020F0B5DE467B
:102FE0004E465746C0B5344B82B081460D0018009E
:102FF00001A99B4602F0F8FB002808D1D0231B064C
:10300000019A1B689A4250D0584602F0FDFB0020FE
:1030100001F080FD002840D00024002D42DD274B28
:103020009A4612E04B460020191901F00BFE0600EB
:1030300000F0E4FD002001F0C9FDFEF7CBFE534691
:1030400018605960A419AC422CDA002001F014FE7B
:103050002E1B0200B04200DD3200002AE2D100F057
:10306000CDFD002001F0B2FD002001F053FD00284D
:1030700018D0002001F000FE0028E4D1FEF7AAFEDF
:10308000002753460E4E1A685B6892197B4199429D
:1030900008D8D8D19042D6D904E000200021074BAF
:1030A00018605960584602F08FFB02B0E0BCBB4686
:1030B000B246A946F0BDC046CC11002080050020D4
:1030C00020A1070010B5044B1878FDF777FFFA2010
:1030D0000021800010BDC0460012002010B5024B38
:1030E0001878FDF76BFF10BD0012002010B5074CDB
:1030F0000021200002F078FB002800D110BD00F074
:103100007DFD200002F060FBF8E7C046CC110020F6
:10311000F0B5244B85B01B7801F096FF2248FFF7ED
:103120001FF90120FEF7D0F9FF23204C2049207021
:103130001840FDF769FF20780121FDF72DFF0520DC
:10314000FDF744FF041E0CD0002205201949FDF7AD
:1031500085FF01211848FFF781FE0124200005B0FA
:10316000F0BDFEF729FC0500FEF734FEFA2206004A
:103170000F000023920092197B4199420ED80BD088
:1031800001210291002101910C4928000091FEF7D4
:1031900017FC0028E2D0DCE79042F1D9012252422C
:1031A000D317EDE7185B0010CC11002000120020AF
:1031B000ED300010DD30001020040020C53000107C
:1031C00000487047C45900100048704770590010FB
:1031D00070B5040017480378002B21D0002C06D1CD
:1031E000154B16484380063BFF3B038070BD052C02
:1031F0001DD8134B1148A400E558811C002304E09E
:1032000001330A800231132B0ED0EA5CDCB2002AB3
:10321000F6D1C0230134E4B264009B002343E4E709
:10322000112102F0A5F9D9E7CA239B00DDE70020B0
:10323000DCE7C046E411002009040000580D00201E
:10324000D8590010F0B5982357464546DE464E46FD
:10325000664AE0B5D75880253C006D02883B9A4607
:1032600085B02C402F420FD001222321604B00203B
:103270005A54DA705F4901F019FA80225E4B9202CB
:103280001A655E4B2C009A46FB0617D480235B011F
:103290001F4247D18023DB011F4200D07CE0802306
:1032A0001B021F4200D085E0BC4200D099E005B06F
:1032B000F0BCBB46B246A946A046F0BD4B4B9B6D49
:1032C0009846002B29D04C4B00249B46012399465D
:1032D000474B012603934346B8461F0004E00134E0
:1032E0007600E4B2202C17D03742F8D05B469E65BA
:1032F0004B466508A3436D00ED18039B6D019C468A
:103300006544280000F00AFB00285ED10134B74371
:10331000E4B27600002FE5D1474680235B01544696
:103320001F42B7D01C430023304A00211360314AAA
:1033300033489360D360136153619361D361136227
:1033400053629362D362136353639363D3631364CF
:1033500053649364D364136553659365D3651366AF
:1033600053669366D366136753679367D367F022F8
:103370009200FFF719FC234B234A00211A6000201A
:10338000012201F069F980221B4B12031A65802388
:10339000DB011F4200D182E70122042100201C43EF
:1033A00001F0CAF81022144B1A6580231B021F4239
:1033B00000D179E70122052100201C4301F0BCF86F
:1033C00080220D4B12011A656EE74B46AA8AA97836
:1033D00000200093002301F091F9280000F0DCF9AF
:1033E00094E7210009487940FFF760F80000115088
:1033F000880D002000001050003011501000010016
:10340000C80D00209011002080011050F0590010CC
:1034100010B501210520FDF7BFFD10BD10B500223C
:103420000021024800F0E0F910BDC046A80D0020C0
:103430008022024B5202DA647047C04600201150CD
:10344000F0B5C64600B5060000F080F90C232E4DFD
:103450000520AB672D49FDF7D7FD402398462C4C3E
:10346000402200212000FFF79FFB43460127A38352
:1034700021210023274A6770A260136063545F31E3
:1034800061844146A18702396354234A234963601A
:10349000E260A1620B60E262214A636220009360F5
:1034A000D360136153619361D3611362536293627A
:1034B000D362136353639363D3631364536493645A
:1034C000D364136553659365D3651366536693663A
:1034D000D366136753679367D367F0220021920086
:1034E0004030FFF761FB0F4B0F4A30001A6080231A
:1034F0009B052F64EB6490230C4AEA50FFF798FF7A
:1035000080BCB846F0BDC0460000115045320010E6
:10351000880D0020840010500001105080001050D1
:1035200000001050901100208001105010D00100B8
:103530000B785B0602D14B78052B00D070478A7858
:10354000014B1A60FAE7C04600001150F0B5CE46B4
:103550004746072380B548798E780A790340C878B2
:103560007F21800731401B02F40913434F00820F73
:10357000944691462A4D3A195201AA18967001268E
:1035800066405670604600269383D6709077CA00D6
:10359000012C29D023488446880162448446AC44E7
:1035A000604682601660002929D01F4AC9009046F3
:1035B000414441603F223F3393434A46022A00D1AF
:1035C0005B001A493F190A687F01D3180B60184B3A
:1035D000ED195340EA604A469006184380236A6812
:1035E0001B060343136010E01248844688016244BE
:1035F0008446AC4460468262166000290AD10023EA
:1036000064012C1963600C4BE3600120C0BCB94617
:10361000B046F0BD064AC900904641444162C9E740
:10362000880D0020840010500400105090110020DC
:103630000000105080001050000110500022154B67
:1036400010B59A60DA601A615A619A61DA611A6299
:103650005A629A62DA621A635A639A63DA631A6484
:103660005A649A64DA641A655A659A65DA651A6664
:103670005A669A66DA661A675A679A67DA67F032A4
:10368000920000210448FFF78FFA044B044A1A60A5
:1036900010BDC04600001050C80D00209011002041
:1036A0008001105010B57F200C0020404000E4093C
:1036B000110000191A00034B4001C01800F094F8E3
:1036C000012010BD880D00207F23180010B5084090
:1036D0000B420BD0C90980224000074B4018400123
:1036E0000021C018120100F05DF810BD0223034A4A
:1036F000C9095B1A9366EEE7880D0020002011507F
:103700007F22130010B50B400A4200D110BDC90939
:103710005B005B1804485B01C018002300220349CA
:10372000C37000F03FF8F1E7880D0020FFF7FFFFBE
:103730007F21C209034B9200014010B5D2580248C4
:10374000FEF7B4FE34040020045A001080220D4B12
:10375000520410B51A600C4B0C491A6010008B68AB
:103760009843FBD10A4C9C2200212000FFF71CFA51
:103770008022002152010748FFF716FA09236367E8
:1037800010BDC04600E0004000F0004000C0004016
:103790000000115000001050002303744382838204
:1037A0008361704710B58368002901D01C682140EF
:1037B000002A11D08024E400114322420CD01A6860
:1037C00022420BD1074A0A401A60FFE7FFE7FFE7F2
:1037D000FFE7FFE7FFE78368196010BD8078FFF718
:1037E000A7FFC046FFFBFFFFF0B5C646002300B5AC
:1037F000838201330374436804001F68838B8161F3
:103800001E1C934200D9161C8020B6B2921B93B2A4
:10381000E278C000304315008446681E854160464A
:103820006D03054301204240E27062786382002A02
:103830004FD0002B1DD1A023DB011D43334B1B6C4C
:103840008023334A9B053A40134362681360A268A1
:1038500013685B0557D42F4B2B401360FFE7FFE73E
:10386000FFE7FFE7FFE7FFE7A3681D6080BCB846FE
:10387000F0BD802252011543244A126C920702D4F3
:10388000A278D209DCD0A28B111C9A4200D9191C53
:103890008AB28021C90011439B1A9046E2789BB2FC
:1038A0001600701E864176030E4301214A40E270E5
:1038B00062786382002A18D0002B02D18023DB01BA
:1038C0001E43A023144A36043A40DB053543134314
:1038D000BBE73200E068FFF76DF9A3699B19A361AC
:1038E00080231B021D43638AA3E7E0684246A16967
:1038F0004030FFF75FF9A3694344A36180231B02B3
:103900001E43638AD8E7A078FFF712FF000011502A
:10391000FFFFFFAFFFFBFFFFFFFFFFDFF0B5C64676
:1039200000B5067C0400002E00D1CFE083681A6841
:103930001D684378AD05AD0D002B51D1838AEB187E
:103940009BB28382A18B8D4207D20023638263687E
:103950001B68300080BCB846F0BD62681268520037
:1039600002D58D4200D177E0638A002BF1D06268E6
:103970001E1C17688B4200D90E1CE17880220D00B6
:10398000681E8541B6B2D20032436D031543012251
:103990009B1B514062789BB26382E170002A6AD01F
:1039A000002B2AD1A023DB011D434D4B1B6C802330
:1039B0004C4A9B053A40134362681360A26813683F
:1039C0005B0500D589E0484B2B401360FFE7FFE71C
:1039D000FFE7FFE7FFE7FFE7A36800261D60B8E702
:1039E0002A008069E168FFF7E5F8A38AA269EB186D
:1039F0009BB25219A382A261A4E78022520115430F
:103A0000374A126C920702D4A278D209CFD0A28B87
:103A1000111C9A423CD88AB28021C90011439B1ADA
:103A20009046E2789BB21600701E864176030E43E4
:103A300001214A40E27062786382002A38D0002B6C
:103A400002D18023DB011E43A023284A36043A40DA
:103A5000DB0535431343AFE7A26815686278AD0113
:103A6000AD0D002A16D1EB18A3828D4200D37BE75F
:103A7000002363826DE73200E068A169FFF79AF8DE
:103A8000A3699B19A36180231B021D43638A87E7F7
:103A9000191CC0E7E1682A004031A069FFF78AF8E5
:103AA000A38AA18BEB18A382A3695B19A361DCE74E
:103AB000E0684246A1694030FFF77CF8A3694344BF
:103AC000A36180231B021E43638AB8E77F238178AA
:103AD000074A08481940FEF7E9FCA078FFF728FEDE
:103AE00000001150FFFFFFAFFFFBFFFFFFFFFFDFF5
:103AF00034040020245A0010024B5878431E984189
:103B0000C0B27047C00A0020024B18784007C00FAF
:103B10007047C046C00A0020014B18787047C04665
:103B2000FB110020F8B54746CE4680B5294F050069
:103B30003B78002B04D00120C0BCB946B046F8BD8C
:103B4000532200212448FFF72FF8244C2000FEF7D1
:103B500007FC234B1C60234C20001C30FEF71CFC90
:103B6000200001F0B9FC204B204E1C60204B9846F1
:103B7000002B04D03000FFF7DDF91E4B18604246E1
:103B800000243378002A1DD01B4A9046194A9146DA
:103B90009C4210D31BD14346984701343378E4B29A
:103BA000A342F5D22800FFF74BFC2800FFF730FCBA
:103BB00001233B70BFE74B461A6863001B19DB000B
:103BC0009B58E9E701F064F83378002BEAD0002332
:103BD0001B68FFDEFB110020C00A0020780A0020CD
:103BE000140B00203C040020180B0020FA110020C8
:103BF000352F001088070020914C0010F0B5DE46EC
:103C000057464E464546E0B58FB001F023FA0028EE
:103C100000D161E1CA4BCB4E9B465D46CA4B0BAC13
:103C20000093CA4B01933768FA69EFF3108172B6BB
:103C30001368002BFCD0BFF35F8F3962380021007E
:103C400001F0C0FAFA693B6ABFF35F8F002111608F
:103C500083F31088002800D13EE16378082BE2D876
:103C60009B00EB589F466368002BDCD0A068984708
:103C7000D9E77F202179B64A084043009C461300CB
:103C800063449846CF09B844424601233032D7787E
:103C90009F43D770D77803339F43D770002800D154
:103CA00021E14346AB4ADB7C002A06D0AA4A1278BF
:103CB000934200D2ABE19B1ADBB2002B00D00BE1A8
:103CC000A64FA36862792078B847ACE7A04B0122E1
:103CD0009A461B78012113435246137033235046F2
:103CE000D25C57468A43C254C25C04208243FA54D1
:103CF0000133FA5C8A43FA54FA5C8243FA5423781B
:103D000000209B4600F078FE602223791A40602A4A
:103D10000DD0402A00D103E1DB06DB0E012B00D1E0
:103D200080E1022B00D133E1002B00D122E1207889
:103D30000021FFF7C9FC80212078FFF7C5FC72E75E
:103D4000834B1B78DB0700D46DE7854B002B00D13C
:103D500069E700E000BF66E77D4A1378DB0700D41F
:103D600061E7804B002B00D15DE710780007C00FA2
:103D700000E000BF57E7784F764A00213B78002AE1
:103D800000D1B6E0714A91463A000F0090469F423A
:103D900008D39F4200D0AFE00137FFB29F4200D965
:103DA00041E7F6D24A4611687A00D219D2008A1841
:103DB0005269002AF0D020789047434601371B789B
:103DC000FFB29F42E3D92EE72378634F614A9946B9
:103DD00000213B78002A00D19AE0634AB44692461B
:103DE00038000F002900594A4E46554693468A46E8
:103DF0008046E146BB425FD800D086E02B00300011
:103E00009847434601371B78FFB2BB42F2D24E4679
:103E100055464F4F532200213800FEF7C5FE1022B1
:103E2000FF21F81CFEF7C0FE38002022FF211330CE
:103E3000FEF7BAFE00F0D6FD4C4B002B00D1F2E6A7
:103E400000E000BFEFE62378434F424A9946002145
:103E50003B78002A53D0444AB446924638000F00BB
:103E600029003A4A4E46554693468A468046E146E0
:103E70009F4229D349D12B00300098474346013750
:103E80001B78FFB2BB42F3D24E465546304F532209
:103E900000213800FEF788FE1022FF21F81CFEF7F3
:103EA00083FE38002022FF211330FEF77DFE00F054
:103EB00099FD2379BB70B6E65B461A687B00DB1977
:103EC000DB00D3185B689AE75B461A687B00DB1956
:103ED000DB00D3185B68CFE70FB0F0BCBB46B2463F
:103EE000A946A046F0BDA3686279207800F098FD4D
:103EF00099E6002B00D196E600235B69FFDE484679
:103F000000F004FF3B78002BC0D000235B68FFDE8D
:103F1000484600F0FBFE3B78002B00D179E7F4E740
:103F20001348002800D102E700F066FD0021584642
:103F30000CAA00E000BF002800D074E6F7E6C046F7
:103F4000585A0010180B0020394D00108807002027
:103F5000C00A0020352F0010FA110020014F001078
:103F600000000000000000000D4D001000000000E7
:103F700000000000202A00D189E0002A00D0D6E607
:103F80006379092B00D9D2E6C64A9B00D3589F46D5
:103F90007023217A0B4200D0C9E60F330B405B003F
:103FA0009C465046CF096044C019C07C02938446A9
:103FB000BD48002808D0BD480078844500D289E07B
:103FC0006346181AC3B29C46604600287CD1002A7A
:103FD00000D00CE1B64B98460220627991468243AC
:103FE000012A00D107E14A46002A00D09FE6029B41
:103FF0000AAA5344DB193033DB7802329B07DB0F0C
:104000001380584602230CA900F096FC0BE6A94A3F
:1040100058001268C318DB00D318002B00D15BE7EF
:104020001F694EE6237A0F2B00D980E69E4A53443F
:10403000DB78002A05D09D4A1278934265D39B1AFB
:10404000DBB2002B00D072E69B48994F00F0D4FC05
:1040500000215846FB680CAA9847002800D0E2E5EA
:104060006022170023791F401A4200D05FE663796F
:104070000A3B012B00D95AE600F0BEFC63790A2BFB
:1040800000D1E7E058460CA900F040FCCBE5237ACC
:104090000F2B00D94BE6844A5344DB78002A06D024
:1040A000824A1278934200D2C9E09B1ADBB2002BFD
:1040B00000D03CE680487E4F00F09EFC0021584630
:1040C000FB680CAA984736E7002A00D02FE60023A9
:1040D000984681E763465B009846E0444346DB0030
:1040E0009846744800688044002A00D174E743462B
:1040F000002B00D11BE6D86800F07EFC434600216F
:104100005846DB680CAA984715E76A4A59001768B1
:10411000CB18DB00FF18002F00D108E6F86895E700
:10412000E388012B00D002E608223B7893435246F5
:104130001370A7E7022039780AAB9A1C8B0689080E
:10414000DB0F01400B435BE7A27905927B789A4233
:1041500007D07B78002B00D036E1059B002B00D0E8
:10416000B0E05346059A58460CA95A7000F0CEFBB1
:1041700059E57B780AAA02321370584601230CA92C
:1041800000F0DAFB4FE5E088030AC0B20F2B00D93C
:10419000CDE54A499A008A5897460CA800F032FCAF
:1041A0005846A179FFF73AF902223B7813433B7056
:1041B00039E5E388012B00D0B9E508223B781343A9
:1041C000B5E7022B00D1A0E13D4B002B00D1AEE5BD
:1041D00000E000BF0200002A00D1A8E5D378917862
:1041E0001B020B4358460CA900F0A6FBA3E6304B7C
:1041F0003148984680E7E288002A09D14B46012BD6
:104200003DD0029B5344DF193037FB789B072AD5FA
:104210004346002B00D106E5D86800F0EDFB43468D
:104220000CAADB68002158469847002000F0E4FB08
:1042300034235246D35CDB0700D5F4E422E71D4A61
:1042400059001768CB18DB00FF18002F00D16EE56E
:10425000F86831E70AAB9A1C584601230CA917707D
:1042600000F06AFBDFE45846FFF72EFA0222FB78E3
:1042700013430122FB70FB781343FB70C8E7029BDA
:104280005344DF193037FB789B07C1D55846FFF7F9
:1042900037FA0222FB7893434A46FB70FB7893433C
:1042A000FB70B5E77C5A0010352F0010FA11002082
:1042B000E45A0010880700201D4E0010A45A001078
:1042C00000000000581EC0B2FEF77EFF002800D19B
:1042D0002DE543780793022B00D028E50121C3790F
:1042E000A9469A115B110A400B4052011B0113436E
:1042F000524612782F318A431343524613700923D2
:10430000984680444746C37882781B021343C318FB
:104310000693804B029604937F4B08937F4B09933F
:10432000069BBB4200D8E7E001227B7803920B2B6F
:1043300004D1FB7803933B78FF187B78042B40D1A2
:10434000069B089ADB1B9BB29846049B00261B78B1
:10435000002A14D17BE0B34200D08AE0009B099D83
:104360004246390058469847082802D943468342B6
:104370000FD2049B01361B78F6B2B34221D3B3426D
:10438000E9D9019A730015689B19DB00ED18AB6839
:10439000E6E7A8460500039B012B00D1A0E0039BA4
:1043A000002B69D00023B97805E0D6700133039A59
:1043B000DBB2934260D2CA18D2B25244D078FF28FE
:1043C000F3D04D46029EB2E45846FFF737F9BB786A
:1043D000514A504F029300213B78002A30D0504A76
:1043E0000392504A91462A000D0090469D421FD3E9
:1043F00000D08AE5039B5846984701353B78EDB2DB
:10440000AB42F3D24546532200215046FEF7CCFB87
:1044100053461022D81CFF21FEF7C6FB504620222F
:10442000FF211330FEF7C0FB5346029A9A7094E6C0
:104430004B461A686B005B19DB00D3185B68DAE740
:10444000584600F063FC3B78002BDCD05DE542462B
:104450003900584600F070FC0500082802D9434690
:10446000834246D2049B4D461B78029E002B00D10E
:104470005DE400239B68FFDE5046330039002A00CC
:10448000133000F027FE049B7F191B78B34200D342
:1044900046E796E7244B002B00D148E400E000BF3C
:1044A00002009BE6FEF78CFE122302000CA9584680
:1044B00000F042FA3FE51D4B002B00D137E400E04D
:1044C00000BF021E00D132E4584613780CA900F058
:1044D00033FA30E52189FEF77BFE021EF4D126E493
:1044E0004246134B92689A4200D05BE7079B0393C6
:1044F00058E70A4B98464EE70E4B4D46029E002B5E
:1045000000D12EE600E000BF2BE6FEF75DFE0200C4
:1045100061E6C046FA110020352F0010E45A001061
:104520000D4D001088070020000000000000000072
:10453000394D00100000000030B587B005000C00B8
:104540000C2200216846FEF72FFB6B461D705C7045
:10455000042C4FD009D8022C34D0032C19D13C4A5A
:1045600013785B0758D407B030BD052C11D1384AF9
:104570001378DB07F7D5042113788B431370354B81
:104580001C68E269EFF3108172B61368002B09D141
:10459000FBE7304B1C68E269EFF3108172B61368D9
:1045A000002BFCD0BFF35F8F21626946200000F032
:1045B000D5FEE269236ABFF35F8F0021116083F3A8
:1045C0001088D0E70121224B1A788A431A701A7892
:1045D0000331A2431A7000225A701A788A431A7063
:1045E0001C4B1C68E269EFF3108172B61368002B54
:1045F000D8D1FBE7164A1378DB07B4D5042113782A
:104600000B431370134B1C68E269EFF3108172B611
:104610001368002BC6D1FBE70421137803A88B4352
:10462000137000210C22FEF7BFFA6B466A461D7319
:1046300005235373074B1C68E269EFF3108172B6D0
:104640001368002BFCD0BFF35F8F216203A9ADE795
:10465000C00A0020180B002070B584B001AC060021
:104660000D000C2200212000FEF79EFA012363704A
:104670000D4B25711D682670EA69EFF3108372B641
:1046800011680029FCD0BFF35F8F2B622100280046
:1046900000F064FEEA692B6ABFF35F8F00211160AE
:1046A00083F3108804B070BD180B0020002330B5D0
:1046B00085B001AD6B8028700633082202A86B70AC
:1046C000FEF778FA0C4B1C68E269EFF3108372B6C0
:1046D00011680029FCD0BFF35F8F236229002000FE
:1046E00000F03CFEE269236ABFF35F8F0021116096
:1046F00083F3108805B030BD180B0020F0B5C64616
:10470000804600B584B001AC0F00160000210822DD
:1047100020001D00FEF748FA43462370072363700C
:104720000F4B65711D682771A660EA69EFF310836E
:1047300072B611680029FCD0BFF35F8F2B62210095
:10474000280000F00BFEEA692B6ABFF35F8F00219F
:10475000116083F3108804B080BCB846F0BDC04639
:10476000180B0020F0B54646D6464F468046C0B5E9
:104770000C0015001E00002A2ED070239946184BFD
:1047800000279A466378052B0FD1E1788907890FB6
:10479000B1420AD14A46A3781A4206D153462000B4
:1047A000997800F05BFC002805D10020E0BCBA46F7
:1047B000B146A846F0BD21004046FEF7C7FE0028DE
:1047C000F3D0A378DA09012A08D0089A1370237865
:1047D0000137E418AF42D5DB0120E7E7099AF5E796
:1047E000C00A0020702270B58B7805000C001A42B8
:1047F00001D0002070BD064B2000997800F02EFCFF
:104800000028F6D021002800FEF7A0FEF2E7C046FF
:10481000C00A00207F2270B5154B0A4052009C1838
:10482000C90964183034E378DB07DD0F002B18D199
:10483000E3785B0701D5280070BD01210D4E494288
:10484000306800F0D9FFE378DB07DD0F002B0AD1D9
:10485000E3785B0708D40422E37801251343E3706F
:1048600002E00025E7E70025306800F0ADFFE2E751
:10487000C00A0020140B002070B50C0001210F4D60
:104880004942286800F0B8FF7F210D4A21404900C5
:10489000E40953181B193033DA780024D20708D4FE
:1048A000DA785207D40F002A03DA0421DA788A432F
:1048B000DA70286800F088FF200070BD140B00201B
:1048C000C00A0020F8B57F260F4D0E407600AC19C7
:1048D0000700C80924183034E5780020ED0700D51A
:1048E000F8BD0125E0782843E0703800FEF7DAFED5
:1048F0000028F5D10122E3789343E370E378033293
:104900009343E370ECE7C046C00A002070B5094C41
:104910000600082220000D00FEF74CF9002380213C
:10492000E360A3602B783000994300220023FFF757
:10493000C9FF70BD640A0020F8B5CE4647469046D0
:10494000264E80B58146082230000D001F00FEF77C
:1049500031F94346B3600023F381EC79AB7924024B
:104960001C43231CBC4200D93B1C9FB2B381002CCA
:1049700012D0002F1CD04346002B2CD03B1C402FC4
:104980001BD89FB233787F2B1CD80021144A3B00E0
:104990004846FFF797FF07E080212B7800229943D4
:1049A00048460023FFF78EFFC0BCB946B046F8BDAD
:1049B00031780022C909C901E9E740239FB2337861
:1049C0007F2BE2D9064C3A0041462000FEF7F2F870
:1049D00080212200DBE70020E6E7C046640A0020D1
:1049E000800A002010B5142200210248FEF7DCF8EE
:1049F00010BDC046640A0020014B18617047C046D4
:104A0000640A002010B5054C010008222000FEF7C2
:104A1000D1F80023A360E36010BDC046640A002003
:104A200070B5394C1D0023780600DA09C9098A429D
:104A300013D00020002D00D070BD344B002B03D0CC
:104A400021003000FEF774FD2369002B41D02200C5
:104A50000221300098470120EEE77F2B06D8A0689E
:104A6000002834D02A002A49FEF7A4F8E289A16878
:104A70005219E38892B24919E281A160934214D09D
:104A80003F2D12D9A389981A051C80B240282CD832
:104A90002078ADB27F282AD800219A4232D01C4A11
:104AA0002B003000FFF70EFFC6E72369002B05D06F
:104AB000220001213000984700280CD08021237863
:104AC0000022994330000023FFF7FCFEB4E70020EA
:104AD000B2E70120B0E700213000FEF7F5FD30001D
:104AE0008021FEF7F1FD0120A6E74025D0E79A429C
:104AF00007D0074C2A002000FEF75CF88021220036
:104B0000CEE780210022CBE7640A00203135001077
:104B1000800A002010B50400FEF7EEFF002801D146
:104B2000002010BDFEF7F0FF0028F9D1B622920058
:104B30006243034B01309B181B791840F1E7C046D4
:104B40008C070020B6239B00584310B5024B103051
:104B5000C01800F011FB10BD8C070020F0B5B62581
:104B6000AD0045432C00C646174F1034E41900B57C
:104B7000200092B200F074FB0600200000F014FB4D
:104B80003F2803D8300080BCB846F0BD7B19002018
:104B9000D9789846FFF73EFE0028F3D0200000F0B9
:104BA00003FB3F280AD996239B00EA184346D219F3
:104BB000D97800204023FFF785FEE3E74346002035
:104BC000D978FFF759FEDDE78C070020F8B504001F
:104BD000FEF792FF002801D10020F8BDFEF794FFF8
:104BE0000028F9D1B6239B005C432500144E2C35D8
:104BF000AD19280000F0C0FA0028EDD037190020C8
:104C0000B978FFF707FE0028E6D0A6239B009C4654
:104C10006444A41921002800402200F021FBB97847
:104C2000051E08D0030022000020FFF74BFE0028DD
:104C3000D2D02800D1E70020FFF71EFECCE7C04607
:104C40008C07002070B5B624A4004443094B2C34D3
:104C5000E418050092B2200000F0BEFB0600200020
:104C600000F08AFA3F2801D8300070BD2800FFF715
:104C7000ADFFF9E78C070020B6239B00584310B521
:104C8000024B2C30C01800F08FFA10BD8C070020AA
:104C9000B622F0B51B4C83B0002120009200FDF736
:104CA00083FFFF236371184B80260025E3800127D3
:104CB0000823210020007600237332002781483129
:104CC0000095073B103000F01BFA2100200049310D
:104CD0003200FF31012300972C3000F011FA9223AB
:104CE0009B00E6183000FDF73BFB94239B00A66277
:104CF000E61830006562FDF733FB2664656403B097
:104D0000F0BDC0468C07002000C2FFFF10B5094C63
:104D1000052200212000FDF747FF20002C34103031
:104D200000F0DAFB200000F0D7FB0121200000F0AA
:104D3000F9FB10BD8C070020F0B54B79060083B05D
:104D4000022B02D18B79022B03D00025280003B05F
:104D5000F0BD2F4FBB78002BF7D18B7809253B7026
:104D60000C780C196378242B0BD1082A02D80FE099
:104D7000AA420DD32378E418ED186378ADB2242B42
:104D8000F6D0052B20D0042B02D163790A2B2ED02C
:104D9000204C200000F008FA3F28D7D92600103E0A
:104DA0000020F178FFF736FD0028CFD0200000F07A
:104DB000FBF93F2816D992239B00E218F178402393
:104DC0000020FFF77FFDC1E721003000FFF70AFD5B
:104DD0000028BAD0A3787B702378ED18E4186378A4
:104DE000ADB2D0E7F1780020FFF746FDAEE70A4B01
:104DF0002778019301330093022202233000E11946
:104E0000FFF7B0FC0028A0D00E35ED19ADB2BFE71A
:104E10008C0700209C0700208E070020F8B5602337
:104E200014001278050013400020202B12D12F4AC5
:104E30006379277916781B023B439E420AD1637837
:104E4000222B27D007D8202B17D0212B02D10029C5
:104E50003DD00120F8BD232BFCD100293FD00229F1
:104E6000F7D1234B002BF4D0E178A378090200207E
:104E7000194300E000BF0120ECE7002927D00229F8
:104E8000E7D11C4B002BE4D00020911DFEF758F811
:104E90000120DFE7002922D00229DAD101252E00E6
:104EA000A378E478013924021C43147126402C3283
:104EB0001000714000F036FB0F4B002BC9D0620888
:104EC000002031002A4000E000BF0120C2E7072394
:104ED00021002800094AFFF72FFD0120BAE7210031
:104EE0002800FFF713FD0120B4E7C0468C0700201F
:104EF00000000000412F0010000000009207002079
:104F0000F8B557464E464546DE46E0B5494F804621
:104F1000FA780C001E008A4264D19AB296239B0054
:104F2000FD1810239B46BB442900584600F054FA54
:104F3000414BD946002B18D07B79D946FF2B14D092
:104F4000002E12D0AA19924603E0013555450CD027
:104F50007B792A789A42F8D1484600F01DF900285A
:104F6000F3D1797900E000BFEFE7344B002B04D098
:104F7000484600F011F9002852D0484600F014F9D4
:104F80003F2834D84B46103B9B78A34207D00124DE
:104F90002000F0BCBB46B246A946A046F8BD284B4F
:104FA000002B02D0002000E000BF0020FFF70EFE23
:104FB0000028ECD1234D280000F0DEF80028E6D1CF
:104FC000002EE4D0B606E2D12C3D4046A978FFF78A
:104FD00021FC041EDBD0002300224046A978FFF705
:104FE00071FCD5E7BB788B42D9D00024D0E74D4681
:104FF000103D0020E978FFF70DFC002801D1AB78C7
:10500000C3E7484600F0D0F83F280CD9922292001E
:1050100040230020E9784A44FFF754FCAB78B4E71A
:1050200000E000BFA9E70020E978FFF725FCAB7896
:10503000ABE7C0468C070020000000000000000025
:1050400000000000B807002010B50020FEF76AFD40
:1050500010BDC04610B5FEF75FFD10BD072210B5AC
:1050600044790379224012021A43C3789B079B0FAD
:10507000022B05D0032B15D00020012B08D010BD2A
:1050800002291CD00020402393424041C0B2F6E7E1
:1050900002394B4259410D4B9C466144914240417B
:1050A000C0B2ECE702394B425941F023002049429B
:1050B0009B001940403191424041C0B2DFE7044BB0
:1050C000D01843425841C0B2D9E7C046FF030000A0
:1050D00000FEFFFFF0B5002A11D000247F274D7895
:1050E000052D06D13D008E7835406D00F609451935
:1050F000AB550D786419A4B24919A242EFD8F0BD9E
:10510000F0B5C64600B5150006AA1E001378802229
:1051100004000F009846120295422AD840690028E0
:1051200003D00121494200F067FBA069002803D0A9
:105130000121494200F060FB4346A5806D00ADB2FD
:1051400023726B1EA381002360696D42E381276097
:10515000E68065812382002801D000F035FBA0693C
:105160000124002801D000F02FFB200080BCB846AD
:10517000F0BD0024F9E7C046C189028A8B1A9BB2B0
:10518000914202D242899B1A9BB28288101C9A4299
:1051900000D9181C80B27047C389008A181A43428C
:1051A0005841C0B27047C04610B5C489018A83888F
:1051B000621A92B28C4202D24189521A92B2981A61
:1051C00080B210BD70B5040080690E00002803D0C5
:1051D0000121494200F010FBE189228A88B28D1A30
:1051E00093B2ADB2914202D26289AD1AADB2A28839
:1051F000AA4207D2904225D261895118411A89B238
:1052000015002182002D02D122E09B1A9BB29A4206
:10521000FBD9E288216853433000C918FDF7CAFC66
:10522000228A0125531C9BB29A4214D90023628919
:105230009B189BB2A0692382002801D000F0C4FA19
:10524000280070BD811AA58989B28D42D8D2D3E7D2
:105250000025238A9BB2A2899A42EBD2E7E7C04697
:10526000F0B54F464646D6460500806988469146C9
:10527000C0B5002803D00121494200F0BDFAEA89F7
:105280002B8A91B2D61A9CB2B6B29A4202D26B89DC
:10529000F61AB6B2AF88B74209D2B94251D26B8979
:1052A000FB18CB1A9BB23E002B822C8AA4B2002E94
:1052B0004DD04B46B14542D89EB2A74203D8E41B1D
:1052C000A4B2A742FBD9EA882968914662433B1BF6
:1052D0009BB289184A469E4224D953439BB21A0076
:1052E00040469A46FDF766FC4B464046F71BE419DC
:1052F0005C432968A2B25044FDF75CFC2A8A9319EA
:105300009BB29A4217D96A899B189BB2A8692B82D3
:10531000002801D000F058FA3000E0BCBA46B1468F
:10532000A846F0BD72434046FDF744FC2A8A931913
:105330009BB29A42E7D8AA899A42E7D2E3E7331CA4
:10534000BAE7CB1BAA899BB29A42ACD2A7E72B8AB9
:10535000AA899BB29A42D9D2D5E7C046F8B50400D3
:1053600040690E00002803D00121494200F044FAB0
:10537000E289218A95B2531A9BB2914202D962897D
:105380009B1A9BB2A2889A4221D02B00954203D34C
:105390009B1A9BB29A42FBD9E288206853433100A2
:1053A000C018FDF707FC6B1C9BB29D420BD96289AC
:1053B0009B189BB260690127E381002801D000F0AF
:1053C00003FA3800F8BDA2899A42F3D2EFE7277AB0
:1053D000002FDAD1F5E7C046F8B54E465746DE460F
:1053E00045468946E0B50600171E5BD04069002897
:1053F00003D00121494200F0FFF9F389318A9BB2C1
:105400009846337AB58889B2002B3BD143465A1A65
:1054100092B2884502D27189521A92B2AA1A111C0C
:1054200092B2BA4251D8F3888FB27A1B9A4693B29D
:105430009B464446A84503D3641BA4B2AC42FBD2AE
:105440005346634330682D1BADB2C018AF422BD812
:10545000524649467A43FDF7ADFB4346FB189BB2E3
:1054600098451BD8B2899A4218D37069F3810028F5
:1054700001D000F0A9F93800F0BCBB46B246A946FD
:10548000A046F8BDF3889A46AF4220D37F1B5F4306
:105490000023B94488462F009B46CAE772899B18AF
:1054A0009BB2E2E70027E6E753465D43ADB22A0030
:1054B0004946FDF77FFB534629005C445C43306856
:1054C000A2B24944FDF776FBC7E7391CABE77A1B6C
:1054D00093B29B46ADE7C04610B504004069002872
:1054E00003D00121494200F087F9A069002803D0C8
:1054F0000121494200F080F90023E3812382A3883F
:1055000060695B009BB25A1E5B42A28163810028E6
:1055100001D000F059F9A069002801D000F054F939
:10552000012010BD70B5040040690D00002803D0B3
:105530000121494200F060F9A069002803D001214F
:10554000494200F059F960692572002801D000F045
:105550003BF9A069002801D000F036F9012070BDA8
:1055600010B5024800F0D8F810BDC046BC110020AC
:1055700030B54B1E012900D1A7E0664A11780D1104
:105580002C0030349F2900D9A2E00470012B00D1F7
:10559000BEE00F21147821400C003034092900DDD1
:1055A00098E04470022B00D1B2E054782511290014
:1055B00030319F2C00D990E08170032B00D1A7E0FF
:1055C0000F2121400C003034092900DD87E0C47030
:1055D000042B00D19CE094782511290030319F2CB8
:1055E00000D97FE00171052B00D191E00F2121400E
:1055F0000C003034092900DD76E04471062B00D11F
:1056000086E0D4782511290030319F2C00D96EE036
:105610008171072B00D17BE00F2121400C00303439
:10562000092966DCC471082B00D171E014792511B9
:10563000290030319F2C5FD80172092B68D00F21CF
:1056400021400C003034092958DC44720A2B5FD009
:1056500054792511290030319F2C52D881720B2B9F
:1056600056D00F2121400C00303409294BDCC47284
:105670000C2B4DD094792511290030319F2C00D965
:10568000073101730D2B43D00F2121400C00303422
:10569000092901DD37310C0044730E2B38D0D17944
:1056A0000C11220030329F2900D9073282730F2B50
:1056B0002ED00F220A4011003731092A01DC303286
:1056C0001100C173102B23D010300023037030BDA4
:1056D00007345AE737310C0063E707316CE737319D
:1056E0000C0074E707317DE737310C0085E707319F
:1056F0008EE737310C0095E707319DE737310C0015
:10570000A3E70731AAE737310C00C4720C2BB1D1E3
:10571000C018DAE7BC11002030B5002589B00400BC
:105720000922002101A80095FDF73EFA0922002177
:1057300005A80495FDF738FA4B236A4668461370AE
:1057400004A90D2200F038F8152108222000694430
:10575000FDF730FA09B030BD10B583070AD0030059
:10576000032102E001330B4205D01A78002AF9D157
:10577000181A10BD030019680C4A0D4C8A188A4388
:1057800022420FD15968094A04338A188A432242B7
:1057900008D15968054A04338A188A432242F1D055
:1057A00000E001331A78002AFBD1E1E7FFFEFEFE9C
:1057B00080808080F8B5C04601B40248844601BCB0
:1057C000604700BF8D02002001B40248844601BC3E
:1057D000604700BFED01002001B40248844601BCCF
:1057E000604700BF5103002001B40248844601BC59
:1057F000604700BF0901002001B40248844601BC93
:10580000604700BF4D01002001B40248844601BC3E
:08581000604700BFC100002049
:1058180044726177696E67207265637400000000E6
:1058280003020100070605044E6F207370696E6C51
:105838006F636B732061726520617661696C616268
:105848006C6500004E6F2075736572204952517364
:105858002061726520617661696C61626C65000027
:10586800486172647761726520616C61726D202590
:105878006420616C726561647920636C61696D652F
:10588800640000000A2A2A2A2050414E4943202A4F
:105898002A2A0A000A0000004861726420617373B2
:1058A8006572740052656C6561736500626F6F7430
:1058B800325F77323571303830000000312E342EA7
:1058C800300000007069636F000000005549000057
:1058D8004A756C203236203230323200060052507F
:1058E800BBFF3CB6CC58001006005250E182887FBE
:1058F800B458001006005250D3F07542AC5800104E
:105908000D0A0000952E0010992E0010A52E0010EB
:10591800D12E0010CD2E001000000000555342205B
:10592800737464696E202F207374646F757400003B
:105938000600525053B4F4A12459001052617370F8
:105948006265727279205069000000005069636FC7
:1059580000000000426F617264204344430000006D
:105968005265736574000000090254000301008049
:105978007D080B0002020200000904000001020277
:10598800000405240020010524010001042402026A
:105998000524060001070581030800100904010019
:1059A800020A000000070502024000000705820203
:1059B8004000000904020000FF0001051201000276
:1059C800EF0201408A2E0A000001010203010000D3
:1059D800000000004459001054590010E411002040
:1059E8005C59001068590010556E68616E646C65EA
:1059F800642049525120307825780A0065702025A6
:105A0800642025732077617320616C726561647905
:105A180020617661696C61626C65000043616E2784
:105A28007420636F6E74696E756520786665722080
:105A38006F6E20696E6163746976652065702025D4
:105A480064202573000000006F757400696E000003
:105A5800263C0010463E0010C83D0010763D001060
:105A6800583D0010403D0010CC3C0010723C001026
:105A7800663C001034410010204100102E3D0010FB
:105A8800B24100102E3D00109A41001086410010CE
:105A98002E3D001072410010484100102E3D0010AC
:105AA800A4440010C2410010D44400102E3D001040
:105AB8002E3D0010B6440010C24100102E3D0010CB
:105AC8002E3D00102E3D00102E3D00102E3D0010E2
